{
  "contractName": "SimpleStorage",
  "abi": [
    {
      "inputs": [],
      "payable": false,
      "stateMutability": "nonpayable",
      "type": "constructor"
    },
    {
      "constant": true,
      "inputs": [
        {
          "internalType": "uint256",
          "name": "",
          "type": "uint256"
        }
      ],
      "name": "betRequests",
      "outputs": [
        {
          "internalType": "string",
          "name": "name",
          "type": "string"
        },
        {
          "internalType": "bool",
          "name": "isEnded",
          "type": "bool"
        },
        {
          "internalType": "uint256",
          "name": "startTime",
          "type": "uint256"
        },
        {
          "internalType": "uint256",
          "name": "finishTime",
          "type": "uint256"
        },
        {
          "internalType": "uint256",
          "name": "winAmount",
          "type": "uint256"
        },
        {
          "internalType": "uint256",
          "name": "drawAmount",
          "type": "uint256"
        },
        {
          "internalType": "uint256",
          "name": "loseAmount",
          "type": "uint256"
        },
        {
          "internalType": "uint256",
          "name": "userBetsSize",
          "type": "uint256"
        }
      ],
      "payable": false,
      "stateMutability": "view",
      "type": "function"
    },
    {
      "constant": false,
      "inputs": [
        {
          "internalType": "uint256",
          "name": "x",
          "type": "uint256"
        }
      ],
      "name": "set",
      "outputs": [],
      "payable": false,
      "stateMutability": "nonpayable",
      "type": "function"
    },
    {
      "constant": true,
      "inputs": [],
      "name": "get",
      "outputs": [
        {
          "internalType": "uint256",
          "name": "",
          "type": "uint256"
        }
      ],
      "payable": false,
      "stateMutability": "view",
      "type": "function"
    },
    {
      "constant": false,
      "inputs": [
        {
          "internalType": "uint256",
          "name": "index",
          "type": "uint256"
        },
        {
          "internalType": "string",
          "name": "outcome",
          "type": "string"
        },
        {
          "internalType": "uint256",
          "name": "x",
          "type": "uint256"
        }
      ],
      "name": "betAmount",
      "outputs": [
        {
          "internalType": "string",
          "name": "",
          "type": "string"
        }
      ],
      "payable": false,
      "stateMutability": "nonpayable",
      "type": "function"
    },
    {
      "constant": false,
      "inputs": [
        {
          "internalType": "string",
          "name": "name",
          "type": "string"
        },
        {
          "internalType": "uint256",
          "name": "startTime",
          "type": "uint256"
        },
        {
          "internalType": "uint256",
          "name": "finishTime",
          "type": "uint256"
        }
      ],
      "name": "createBetRequest",
      "outputs": [],
      "payable": false,
      "stateMutability": "nonpayable",
      "type": "function"
    },
    {
      "constant": true,
      "inputs": [],
      "name": "getBetRequests",
      "outputs": [
        {
          "internalType": "uint256[]",
          "name": "",
          "type": "uint256[]"
        }
      ],
      "payable": false,
      "stateMutability": "view",
      "type": "function"
    },
    {
      "constant": true,
      "inputs": [],
      "name": "getBetRequestCount",
      "outputs": [
        {
          "internalType": "uint256",
          "name": "",
          "type": "uint256"
        }
      ],
      "payable": false,
      "stateMutability": "view",
      "type": "function"
    },
    {
      "constant": true,
      "inputs": [
        {
          "internalType": "uint256",
          "name": "index",
          "type": "uint256"
        }
      ],
      "name": "getBetRequest",
      "outputs": [
        {
          "internalType": "uint256",
          "name": "",
          "type": "uint256"
        },
        {
          "internalType": "string",
          "name": "",
          "type": "string"
        },
        {
          "internalType": "uint256",
          "name": "",
          "type": "uint256"
        },
        {
          "internalType": "uint256",
          "name": "",
          "type": "uint256"
        },
        {
          "internalType": "uint256",
          "name": "",
          "type": "uint256"
        },
        {
          "internalType": "uint256",
          "name": "",
          "type": "uint256"
        },
        {
          "internalType": "uint256",
          "name": "",
          "type": "uint256"
        }
      ],
      "payable": false,
      "stateMutability": "view",
      "type": "function"
    },
    {
      "constant": false,
      "inputs": [
        {
          "internalType": "uint256",
          "name": "index",
          "type": "uint256"
        },
        {
          "internalType": "string",
          "name": "outcome",
          "type": "string"
        }
      ],
      "name": "finishBet",
      "outputs": [],
      "payable": false,
      "stateMutability": "nonpayable",
      "type": "function"
    },
    {
      "constant": true,
      "inputs": [
        {
          "internalType": "string",
          "name": "a",
          "type": "string"
        },
        {
          "internalType": "string",
          "name": "b",
          "type": "string"
        }
      ],
      "name": "compareStrings",
      "outputs": [
        {
          "internalType": "bool",
          "name": "",
          "type": "bool"
        }
      ],
      "payable": false,
      "stateMutability": "pure",
      "type": "function"
    }
  ],
  "bytecode": "0x60806040523480156200001157600080fd5b506000650172ad5e07f690506000650172af321ed59050620000706040518060400160405280601181526020017f5a656e69742076732e205370617274616b00000000000000000000000000000081525083836200007860201b60201c565b505062000218565b600060405180610100016040528085815260200160001515815260200184815260200183815260200160008152602001600081526020016000815260200160008152509080600181540180825580915050906001820390600052602060002090600902016000909192909190915060008201518160000190805190602001906200010492919062000169565b5060208201518160010160006101000a81548160ff02191690831515021790555060408201518160020155606082015181600301556080820151816004015560a0820151816005015560c0820151816006015560e08201518160080155505050505050565b828054600181600116156101000203166002900490600052602060002090601f016020900481019282601f10620001ac57805160ff1916838001178555620001dd565b82800160010185558215620001dd579182015b82811115620001dc578251825591602001919060010190620001bf565b5b509050620001ec9190620001f0565b5090565b6200021591905b8082111562000211576000816000905550600101620001f7565b5090565b90565b61177880620002286000396000f3fe608060405234801561001057600080fd5b506004361061009e5760003560e01c80636d4ce63c116100665780636d4ce63c1461035f57806384e0a5df1461037d578063874a1f281461044e578063bed34bba146104ad578063c18525a3146106175761009e565b806311b69391146100a35780633c0398a31461017257806359ce53331461019057806360fe47b11461025557806366db57a114610283575b600080fd5b610170600480360360608110156100b957600080fd5b81019080803590602001906401000000008111156100d657600080fd5b8201836020820111156100e857600080fd5b8035906020019184600183028401116401000000008311171561010a57600080fd5b91908080601f016020809104026020016040519081016040528093929190818152602001838380828437600081840152601f19601f820116905080830192505050505050509192919290803590602001909291908035906020019092919050505061075f565b005b61017a61084e565b6040518082815260200191505060405180910390f35b610253600480360360408110156101a657600080fd5b8101908080359060200190929190803590602001906401000000008111156101cd57600080fd5b8201836020820111156101df57600080fd5b8035906020019184600183028401116401000000008311171561020157600080fd5b91908080601f016020809104026020016040519081016040528093929190818152602001838380828437600081840152601f19601f82011690508083019250505050505050919291929050505061085a565b005b6102816004803603602081101561026b57600080fd5b8101908080359060200190929190505050610db3565b005b6102af6004803603602081101561029957600080fd5b8101908080359060200190929190505050610e3b565b60405180806020018915151515815260200188815260200187815260200186815260200185815260200184815260200183815260200182810382528a818151815260200191508051906020019080838360005b8381101561031d578082015181840152602081019050610302565b50505050905090810190601f16801561034a5780820380516001836020036101000a031916815260200191505b50995050505050505050505060405180910390f35b610367610f35565b6040518082815260200191505060405180910390f35b6103a96004803603602081101561039357600080fd5b8101908080359060200190929190505050610f7c565b6040518088815260200180602001878152602001868152602001858152602001848152602001838152602001828103825288818151815260200191508051906020019080838360005b8381101561040d5780820151818401526020810190506103f2565b50505050905090810190601f16801561043a5780820380516001836020036101000a031916815260200191505b509850505050505050505060405180910390f35b6104566110f7565b6040518080602001828103825283818151815260200191508051906020019060200280838360005b8381101561049957808201518184015260208101905061047e565b505050509050019250505060405180910390f35b6105fd600480360360408110156104c357600080fd5b81019080803590602001906401000000008111156104e057600080fd5b8201836020820111156104f257600080fd5b8035906020019184600183028401116401000000008311171561051457600080fd5b91908080601f016020809104026020016040519081016040528093929190818152602001838380828437600081840152601f19601f8201169050808301925050505050505091929192908035906020019064010000000081111561057757600080fd5b82018360208201111561058957600080fd5b803590602001918460018302840111640100000000831117156105ab57600080fd5b91908080601f016020809104026020016040519081016040528093929190818152602001838380828437600081840152601f19601f820116905080830192505050505050509192919290505050611190565b604051808215151515815260200191505060405180910390f35b6106e46004803603606081101561062d57600080fd5b81019080803590602001909291908035906020019064010000000081111561065457600080fd5b82018360208201111561066657600080fd5b8035906020019184600183028401116401000000008311171561068857600080fd5b91908080601f016020809104026020016040519081016040528093929190818152602001838380828437600081840152601f19601f8201169050808301925050505050505091929192908035906020019092919050505061127f565b6040518080602001828103825283818151815260200191508051906020019080838360005b83811015610724578082015181840152602081019050610709565b50505050905090810190601f1680156107515780820380516001836020036101000a031916815260200191505b509250505060405180910390f35b600060405180610100016040528085815260200160001515815260200184815260200183815260200160008152602001600081526020016000815260200160008152509080600181540180825580915050906001820390600052602060002090600902016000909192909190915060008201518160000190805190602001906107e992919061166e565b5060208201518160010160006101000a81548160ff02191690831515021790555060408201518160020155606082015181600301556080820151816004015560a0820151816005015560c0820151816006015560e08201518160080155505050505050565b60008080549050905090565b60016000838154811061086957fe5b906000526020600020906009020160010160006101000a81548160ff021916908315150217905550600080838154811061089f57fe5b906000526020600020906009020160060154600084815481106108be57fe5b906000526020600020906009020160050154600085815481106108dd57fe5b90600052602060002090600902016004015401019050610932826040518060400160405280600381526020017f57696e0000000000000000000000000000000000000000000000000000000000815250611190565b15610a6357806001600080868154811061094857fe5b9060005260206000209060090201600701600080815260200190815260200160002060000160009054906101000a900473ffffffffffffffffffffffffffffffffffffffff1673ffffffffffffffffffffffffffffffffffffffff1673ffffffffffffffffffffffffffffffffffffffff1681526020019081526020016000205401600160008086815481106109da57fe5b9060005260206000209060090201600701600080815260200190815260200160002060000160009054906101000a900473ffffffffffffffffffffffffffffffffffffffff1673ffffffffffffffffffffffffffffffffffffffff1673ffffffffffffffffffffffffffffffffffffffff16815260200190815260200160002081905550610d45565b610aa2826040518060400160405280600481526020017f4c6f736500000000000000000000000000000000000000000000000000000000815250611190565b15610bd5578060016000808681548110610ab857fe5b906000526020600020906009020160070160006001815260200190815260200160002060000160009054906101000a900473ffffffffffffffffffffffffffffffffffffffff1673ffffffffffffffffffffffffffffffffffffffff1673ffffffffffffffffffffffffffffffffffffffff168152602001908152602001600020540160016000808681548110610b4b57fe5b906000526020600020906009020160070160006001815260200190815260200160002060000160009054906101000a900473ffffffffffffffffffffffffffffffffffffffff1673ffffffffffffffffffffffffffffffffffffffff1673ffffffffffffffffffffffffffffffffffffffff16815260200190815260200160002081905550610d44565b610c14826040518060400160405280600481526020017f4472617700000000000000000000000000000000000000000000000000000000815250611190565b15610d43578060016000808681548110610c2a57fe5b906000526020600020906009020160070160006002815260200190815260200160002060000160009054906101000a900473ffffffffffffffffffffffffffffffffffffffff1673ffffffffffffffffffffffffffffffffffffffff1673ffffffffffffffffffffffffffffffffffffffff168152602001908152602001600020540160016000808681548110610cbd57fe5b906000526020600020906009020160070160006002815260200190815260200160002060000160009054906101000a900473ffffffffffffffffffffffffffffffffffffffff1673ffffffffffffffffffffffffffffffffffffffff1673ffffffffffffffffffffffffffffffffffffffff168152602001908152602001600020819055505b5b5b6000808481548110610d5357fe5b9060005260206000209060090201600401819055506000808481548110610d7657fe5b9060005260206000209060090201600501819055506000808481548110610d9957fe5b906000526020600020906009020160060181905550505050565b80600160003373ffffffffffffffffffffffffffffffffffffffff1673ffffffffffffffffffffffffffffffffffffffff1681526020019081526020016000205401600160003373ffffffffffffffffffffffffffffffffffffffff1673ffffffffffffffffffffffffffffffffffffffff1681526020019081526020016000208190555050565b60008181548110610e4857fe5b9060005260206000209060090201600091509050806000018054600181600116156101000203166002900480601f016020809104026020016040519081016040528092919081815260200182805460018160011615610100020316600290048015610ef45780601f10610ec957610100808354040283529160200191610ef4565b820191906000526020600020905b815481529060010190602001808311610ed757829003601f168201915b5050505050908060010160009054906101000a900460ff16908060020154908060030154908060040154908060050154908060060154908060080154905088565b6000600160003373ffffffffffffffffffffffffffffffffffffffff1673ffffffffffffffffffffffffffffffffffffffff16815260200190815260200160002054905090565b6000606060008060008060008760008981548110610f9657fe5b906000526020600020906009020160000160008a81548110610fb457fe5b90600052602060002090600902016002015460008b81548110610fd357fe5b90600052602060002090600902016003015460008c81548110610ff257fe5b90600052602060002090600902016004015460008d8154811061101157fe5b90600052602060002090600902016005015460008e8154811061103057fe5b906000526020600020906009020160060154858054600181600116156101000203166002900480601f0160208091040260200160405190810160405280929190818152602001828054600181600116156101000203166002900480156110d75780601f106110ac576101008083540402835291602001916110d7565b820191906000526020600020905b8154815290600101906020018083116110ba57829003601f168201915b505050505095509650965096509650965096509650919395979092949650565b60608060008054905060405190808252806020026020018201604052801561112e5781602001602082028038833980820191505090505b50905060008090505b600080549050811015611188576000818154811061115157fe5b90600052602060002090600902016002015482828151811061116f57fe5b6020026020010181815250508080600101915050611137565b508091505090565b6000816040516020018082805190602001908083835b602083106111c957805182526020820191506020810190506020830392506111a6565b6001836020036101000a03801982511681845116808217855250505050505090500191505060405160208183030381529060405280519060200120836040516020018082805190602001908083835b6020831061123b5780518252602082019150602081019050602083039250611218565b6001836020036101000a0380198251168184511680821785525050505050509050019150506040516020818303038152906040528051906020012014905092915050565b6060600160003373ffffffffffffffffffffffffffffffffffffffff1673ffffffffffffffffffffffffffffffffffffffff16815260200190815260200160002054821161162e576112cf6116ee565b60405180604001604052803373ffffffffffffffffffffffffffffffffffffffff168152602001848152509050600080868154811061130a57fe5b906000526020600020906009020160080154905083600160003373ffffffffffffffffffffffffffffffffffffffff1673ffffffffffffffffffffffffffffffffffffffff1681526020019081526020016000205403600160003373ffffffffffffffffffffffffffffffffffffffff1673ffffffffffffffffffffffffffffffffffffffff168152602001908152602001600020819055506113e2856040518060400160405280600381526020017f57696e0000000000000000000000000000000000000000000000000000000000815250611190565b1561142f5783600087815481106113f557fe5b906000526020600020906009020160040154016000878154811061141557fe5b906000526020600020906009020160040181905550611545565b61146e856040518060400160405280600481526020017f4c6f736500000000000000000000000000000000000000000000000000000000815250611190565b156114bb57836000878154811061148157fe5b90600052602060002090600902016006015401600087815481106114a157fe5b906000526020600020906009020160060181905550611544565b6114fa856040518060400160405280600481526020017f4472617700000000000000000000000000000000000000000000000000000000815250611190565b1561154357836000878154811061150d57fe5b906000526020600020906009020160050154016000878154811061152d57fe5b9060005260206000209060090201600501819055505b5b5b816000878154811061155357fe5b9060005260206000209060090201600701600083815260200190815260200160002060008201518160000160006101000a81548173ffffffffffffffffffffffffffffffffffffffff021916908373ffffffffffffffffffffffffffffffffffffffff1602179055506020820151816001015590505060018101600087815481106115da57fe5b9060005260206000209060090201600801819055506040518060400160405280601481526020017f426574206d616465207375636365737366756c2100000000000000000000000081525092505050611667565b6040518060400160405280601a81526020017f4e6f7420656e6f7567746820616d6f756e7420746f206265742100000000000081525090505b9392505050565b828054600181600116156101000203166002900490600052602060002090601f016020900481019282601f106116af57805160ff19168380011785556116dd565b828001600101855582156116dd579182015b828111156116dc5782518255916020019190600101906116c1565b5b5090506116ea919061171e565b5090565b6040518060400160405280600073ffffffffffffffffffffffffffffffffffffffff168152602001600081525090565b61174091905b8082111561173c576000816000905550600101611724565b5090565b9056fea265627a7a723158201bcb5419166416fb5a8aa11da4c70383aefcbeaf31947837bce8dad8bd5c0b0664736f6c63430005100032",
  "source": "pragma solidity >=0.4.21 <0.7.0;\n\ncontract SimpleStorage {\n    struct UserAmount {\n        address userAddress;\n        uint256 userAmount;\n    }\n\n    struct BetRequest {\n        string name;\n        bool isEnded;\n        uint256 startTime;\n        uint256 finishTime;\n        uint256 winAmount;\n        uint256 drawAmount;\n        uint256 loseAmount;\n        mapping(uint256 => UserAmount) userBets;\n        uint256 userBetsSize;\n    }\n\n    BetRequest[] public betRequests;\n\n    mapping(address => uint256) storedData;\n\n    constructor() public {\n        uint256 startTime = 1592046520310;\n        uint256 finishTime = 1592077197013;\n        createBetRequest(\"Zenit vs. Spartak\", startTime, finishTime);\n        /*createBetRequest(\n            \"Zenit vs. Rybin\",\n            startTime + 10000,\n            finishTime + 10000\n        );\n        createBetRequest(\n            \"Zenit vs. Krasnodar\",\n            startTime + 20000,\n            finishTime + 20000\n        );*/\n    }\n\n    function set(uint256 x) public {\n        storedData[msg.sender] = storedData[msg.sender] + x;\n    }\n\n    function get() public view returns (uint256) {\n        return storedData[msg.sender];\n    }\n\n    function betAmount(\n        uint256 index,\n        string memory outcome,\n        uint256 x\n    ) public returns (string memory) {\n        if (x <= storedData[msg.sender]) {\n            UserAmount memory userAmount = UserAmount(msg.sender, x);\n            uint256 betsCount = betRequests[index].userBetsSize;\n            storedData[msg.sender] = storedData[msg.sender] - x;\n            if (compareStrings(outcome, \"Win\")) {\n                betRequests[index].winAmount = betRequests[index].winAmount + x;\n            } else if (compareStrings(outcome, \"Lose\")) {\n                betRequests[index].loseAmount = betRequests[index].loseAmount + x;\n            } else if (compareStrings(outcome, \"Draw\")) {\n                betRequests[index].drawAmount = betRequests[index].drawAmount + x;\n            }\n            betRequests[index].userBets[betsCount] = userAmount;\n            betRequests[index].userBetsSize = betsCount + 1;\n            return \"Bet made successful!\";\n        }\n        return \"Not enougth amount to bet!\";\n    }\n\n    function createBetRequest(\n        string memory name,\n        uint256 startTime,\n        uint256 finishTime\n    ) public {\n        betRequests.push(\n            BetRequest({\n                name: name,\n                isEnded: false,\n                startTime: startTime,\n                finishTime: finishTime,\n                winAmount: 0,\n                drawAmount: 0,\n                loseAmount: 0,\n                userBetsSize: 0\n            })\n        );\n        //betRequests.push(BetRequest(name, false, startTime, finishTime, 0, 0, 0, 0));\n    }\n\n    function getBetRequests() external view returns (uint256[] memory) {\n        uint256[] memory result = new uint256[](betRequests.length);\n        for (uint256 i = 0; i < betRequests.length; i++) {\n            result[i] = betRequests[i].startTime;\n        }\n        return result;\n    }\n\n    function getBetRequestCount() public view returns (uint256) {\n        return betRequests.length;\n    }\n\n    function getBetRequest(uint256 index)\n        public\n        view\n        returns (\n            uint256,\n            string memory,\n            //bool,\n            uint256,\n            uint256,\n            uint256,\n            uint256,\n            uint256\n        )\n    {\n        return (\n            index,\n            betRequests[index].name,\n            //betRequests[index].isEnded,\n            betRequests[index].startTime,\n            betRequests[index].finishTime,\n            betRequests[index].winAmount,\n            betRequests[index].drawAmount,\n            betRequests[index].loseAmount\n        );\n    }\n\n    function finishBet(uint256 index, string memory outcome) public {\n      betRequests[index].isEnded = true;\n      uint256 sumAmount = betRequests[index].winAmount + betRequests[index].drawAmount + betRequests[index].loseAmount;\n        if (compareStrings(outcome, \"Win\")) {\n            storedData[betRequests[index].userBets[0].userAddress] = storedData[betRequests[index].userBets[0].userAddress] + sumAmount;\n        } else if (compareStrings(outcome, \"Lose\")) {\n            storedData[betRequests[index].userBets[1].userAddress] = storedData[betRequests[index].userBets[1].userAddress] + sumAmount;\n        } else if (compareStrings(outcome, \"Draw\")) {\n            storedData[betRequests[index].userBets[2].userAddress] = storedData[betRequests[index].userBets[2].userAddress] + sumAmount;\n        }\n        betRequests[index].winAmount = 0;\n        betRequests[index].drawAmount = 0;\n        betRequests[index].loseAmount = 0;\n    }\n\n    function compareStrings(string memory a, string memory b)\n        public\n        pure\n        returns (bool)\n    {\n        return (keccak256(abi.encodePacked((a))) ==\n            keccak256(abi.encodePacked((b))));\n    }\n}\n",
  "sourcePath": "/home/mikhail/MasterVKRproject/React/contracts/SimpleStorage.sol",
  "compiler": {
    "name": "solc",
    "version": "0.5.16+commit.9c3226ce.Emscripten.clang"
  },
  "schemaVersion": "3.1.0",
  "updatedAt": "2020-06-13T19:50:27.987Z",
  "networkType": "ethereum",
  "devdoc": {
    "methods": {}
  },
  "userdoc": {
    "methods": {}
  }
}